:100000000C9462000C948A000C948A000C948A0070
:100010000C948A000C948A000C948A000C948A0038
:100020000C948A000C948A000C948A000C940D05A0
:100030000C948A000C948A000C948A000C948A0018
:100040000C94C3040C948A000C9491040C946B04DB
:100050000C948A000C948A000C948A000C948A00F8
:100060000C9480050C948A000000000024002700F6
:100070002A0000000000250028002B0000000000DE
:1000800023002600290004040404040404040202DA
:100090000202020203030303030301020408102007
:1000A0004080010204081020010204081020000012
:1000B0000008000201000003040700000000000027
:1000C00000009F0611241FBECFEFD8E0DEBFCDBFDA
:1000D00012E0A0E0B1E0E4E2F2E102C005900D928E
:1000E000AA31B107D9F723E0AAE1B2E001C01D921D
:1000F000A237B207E1F710E0C2E6D0E004C02197D2
:10010000FE010E940A09C136D107C9F70E94D8062C
:100110000C9410090C9400000895CF93DF93AC0168
:10012000E091BF02F091C0023097F1F09091BE02D1
:100130008091BD029817C0F090E0292F30E026177B
:10014000370754F4D901A65EBD4F240F351FE901CE
:1001500028812C939F5FF1CF1092BE026093BD0265
:10016000CB01DF91CF910994DF91CF910895AF92A8
:10017000BF92CF92DF92EF92FF920F931F93CF9394
:10018000DF936C017B018B01040F151FEB015E01F6
:10019000AE18BF08C017D10759F06991D601ED918B
:1001A000FC910190F081E02DC6010995892B79F72A
:1001B000C501DF91CF911F910F91FF90EF90DF90DC
:1001C000CF90BF90AF900895FC01538D448D252FA3
:1001D00030E0842F90E0821B930B541710F0CF96E1
:1001E000089501970895FC01918D828D981761F013
:1001F000A28DAE0FBF2FB11D5D968C91928D9F5F2A
:100200009F73928F90E008958FEF9FEF0895FC0108
:10021000918D828D981731F0828DE80FF11D858DBB
:1002200090E008958FEF9FEF0895FC01918D228D4E
:10023000892F90E0805C9F4F821B91098F739927D3
:10024000089589EC92E00E94150121E0892B09F4C0
:1002500020E0822F089580E090E0892B29F00E9411
:10026000210181110C9400000895FC01A48DA80FB8
:10027000B92FB11DA35ABF4F2C91848D90E00196E8
:100280008F739927848FA689B7892C93A089B18908
:100290008C91837080648C93938D848D981306C0A9
:1002A0000288F389E02D80818F7D80830895EF920D
:1002B000FF920F931F93CF93DF93EC0181E0888F20
:1002C0009B8D8C8D98131AC0E889F989808185FFF0
:1002D00015C09FB7F894EE89FF896083E889F98992
:1002E00080818370806480839FBF81E090E0DF9194
:1002F000CF911F910F91FF90EF900895F62E0B8DE7
:1003000010E00F5F1F4F0F731127E02E8C8D8E11A1
:100310000CC00FB607FCFACFE889F989808185FF08
:10032000F5CFCE010E943501F1CFEB8DEC0FFD2F03
:10033000F11DE35AFF4FF0829FB7F8940B8FEA89C3
:10034000FB8980818062CFCFCF93DF93EC01888DD2
:100350008823B9F0AA89BB89E889F9898C9185FD40
:1003600003C0808186FD0DC00FB607FCF7CF8C91CE
:1003700085FFF2CF808185FFEDCFCE010E94350150
:10038000E9CFDF91CF910895833081F028F4813057
:1003900099F08230A9F008958730A9F08830C9F02B
:1003A0008430B1F4809180008F7D03C08091800003
:1003B0008F7780938000089584B58F7784BD0895EA
:1003C00084B58F7DFBCF8091B0008F778093B00094
:1003D00008958091B0008F7DF9CFCF93DF93282FC0
:1003E00030E0F901E255FF4F8491F901E656FF4FE5
:1003F000D491F901EA57FF4FC491CC23A1F08111A8
:100400000E94C401EC2FF0E0EE0FFF1FE458FF4FF5
:10041000A591B491EC91ED2381E090E009F480E0A6
:10042000DF91CF91089580E090E0FACF1F93CF93B2
:10043000DF93282F30E0F901E255FF4F8491F90155
:10044000E656FF4FD491F901EA57FF4FC491CC23F0
:10045000A9F0162F81110E94C401EC2FF0E0EE0FDD
:10046000FF1FEE58FF4FA591B4918FB7F894EC9110
:10047000111108C0D095DE23DC938FBFDF91CF919F
:100480001F910895DE2BF8CFCF93DF9390E0FC010E
:10049000E656FF4F24918A579F4FFC018491882391
:1004A000C9F090E0880F991FFC01E859FF4FA59112
:1004B000B491FC01EE58FF4FC591D49161110DC06C
:1004C0009FB7F8948C91209582238C938881282360
:1004D00028839FBFDF91CF910895623051F49FB779
:1004E000F8943C91822F809583238C93E8812E2B66
:1004F000EFCF8FB7F894EC912E2B2C938FBFEACFD0
:100500003FB7F8948091B3029091B402A091B502E4
:10051000B091B60226B5A89B05C02F3F19F00196F1
:10052000A11DB11D3FBFBA2FA92F982F8827BC014D
:10053000CD01620F711D811D911D42E0660F771F75
:10054000881F991F4A95D1F708958F929F92AF9275
:10055000BF92CF92DF92EF92FF924B015C010E941B
:1005600080026B017C010E9480026C197D098E095A
:100570009F09683E734081059105A8F321E0821A26
:100580009108A108B10888EEC80E83E0D81EE11CCE
:10059000F11C81149104A104B10429F7FF90EF909C
:1005A000DF90CF90BF90AF909F908F900895862757
:1005B000082E8295807F8025092E982F82958F7036
:1005C0000826869598278927880F880F880F802509
:1005D0000895CF92DF92EF92FF920F931F93CF93E4
:1005E000DF938C018091C7028111FCCF65E18FEF11
:1005F0009FEF0E94D7022EE02093090129E120936A
:100600000A01E80161E0E62E61E0F62E0E5E1F4F62
:100610006E0169910E94D702D601EC91F0E054E09E
:10062000F595E7955A95E1F7E954FE4F2081F701DA
:100630002287FE013197E081EF70F0E0E954FE4F30
:100640002081D7011B962C93B2E0EB0EF11C0C1706
:100650001D07F1F680959095FC0124E0F695E7954D
:100660002A95E1F7EF70FF27E954FE4F2081209390
:100670002F01FC01EF70FF27E954FE4F20812093EA
:100680003001FC01EF2FFF27E295EF70E954FE4F98
:10069000208120933101E92FFF27EF70FF27E954D4
:1006A000FE4F80818093320182E38093C8021092D2
:1006B000C6021092C5021092C4026091C302C1E04A
:1006C0006C278AE00E941602C093C70281E0DF9186
:1006D000CF911F910F91FF90EF90DF90CF900895F1
:1006E00020916002260F3327331F21323105ECF4AD
:1006F00020918402FC0190E080E0243069F082E0E7
:100700000895A09160022191AC01405C5D4FA40F5F
:10071000B52FB11D2C930196861798F38091600236
:10072000680F6093600280E0089581E00895109260
:10073000840281E0809386021092850261E082E16A
:100740000E94160261E083E10E941602E9EBF0E0EC
:1007500080818E7F808380818D7F808388E48093F9
:10076000B80085E48093BC0008950895E091BE022E
:100770008091BD02E81730F4F0E0E65EFD4F808125
:1007800090E008958FEF9FEF08959091BE028091C1
:10079000BD022FEF3FEF981748F4E92FF0E0E65E37
:1007A000FD4F208130E09F5F9093BE02C901089504
:1007B00086E693E00E94C5039093C2028093C10233
:1007C00008958091BD029091BE02891B990B0895F6
:1007D000CF93DF93CB01EA01642F0E947003CE0117
:1007E000DF91CF910895CF93DF931F92CDB7DEB7FE
:1007F000698361E0CE0101960E94700381E090E080
:100800000F90DF91CF91089590E080E00895FC0172
:1008100001900020E9F73197AF01481B590BBC014B
:1008200089EC92E00C94B700CF93DF9385ED809331
:10083000BC0080913C0290913D02A0913E02B0919B
:100840003F020796A11DB11D23E0B695A795979588
:1008500087952A95D1F72091BC0024FD03C0109202
:10086000840236C040913C0250913D0260913E02AC
:1008700070913F02452B462B472B69F30097A1054A
:10088000B10541F025E32A95F1F700000197A10990
:10089000B109E1CF80913B0291E090933A02882325
:1008A000B9F0C091B800D091BA008091BC008A7BA9
:1008B0008093BC0060E082E10E94160260E083E168
:1008C0000E9416020E949703D093BA00C093B8000A
:1008D000DF91CF9108951F920F920FB60F921124BE
:1008E0002F933F934F935F936F937F938F939F9338
:1008F000AF93BF93EF93FF9389EC92E00E94350191
:10090000FF91EF91BF91AF919F918F917F916F91E7
:100910005F914F913F912F910F900FBE0F901F90BD
:1009200018951F920F920FB60F9211242F938F9349
:100930009F93EF93FF93E091D902F091DA028081C7
:10094000E091DF02F091E00282FD1BC09081809176
:10095000E2028F5F8F732091E302821741F0E091F2
:10096000E202F0E0E753FD4F958F8093E202FF91A2
:10097000EF919F918F912F910F900FBE0F901F902D
:1009800018958081F4CF1F920F920FB60F92112409
:100990002F933F938F939F93AF93BF938091AF0219
:1009A0009091B002A091B102B091B2023091AE022A
:1009B00023E0230F2D3758F50196A11DB11D20937B
:1009C000AE028093AF029093B002A093B102B093B5
:1009D000B2028091B3029091B402A091B502B0919D
:1009E000B6020196A11DB11D8093B3029093B4028B
:1009F000A093B502B093B602BF91AF919F918F9132
:100A00003F912F910F900FBE0F901F90189526E8E1
:100A1000230F0296A11DB11DD2CF1F920F920FB6C8
:100A20000F9211241F932F933F934F935F936F93D4
:100A30007F938F939F93AF93BF93CF93DF93EF9366
:100A4000FF938091C702882321F18091C40291E035
:100A5000980F9093C40281111CC0C091C6021091DE
:100A600000018091C802C81770F16091C3028AE04A
:100A70000E94160260E0812F0E9416021092C702A7
:100A80008091AC029091AD0201969093AD0280935B
:100A9000AC028091C402883010F01092C402FF9121
:100AA000EF91DF91CF91BF91AF919F918F917F9106
:100AB0006F915F914F913F912F911F910F900FBEBA
:100AC0000F901F901895EC2FF0E0EF5FFE4F6081C4
:100AD0002091C502D1E0D20FD093C50281E090E011
:100AE00001C0880F2A95EAF76823812F0E94160219
:100AF000D630A8F21092C502CF5FC093C602C9CF0C
:100B00001F920F920FB60F9211242F933F934F9382
:100B10005F936F937F938F939F93AF93BF93EF9365
:100B2000FF938091B900887F803609F44AC0F0F5C0
:100B3000883209F4A7C018F5803109F49BC0B8F4D5
:100B4000882309F4F9C0883009F494C0FF91EF912B
:100B5000BF91AF919F918F917F916F915F914F91D5
:100B60003F912F910F900FBE0F901F9018958831D5
:100B700009F488C0803251F78093830214C0803416
:100B800009F49DC040F48033B9F38833F9F68093BB
:100B9000830285ECB0C0803509F485C0883509F43E
:100BA00096C0883499F60E941404D0CF883909F48D
:100BB0008CC038F5883729F050F4883611F080372A
:100BC00029F683E0809384021092820257C088380D
:100BD00009F47BC0803919F0803809F0B7CF8091D3
:100BE0008202803208F071C0E091820281E08E0FB3
:100BF000809382028091BB00F0E0EE59FD4F80832C
:100C00003DC0803B39F0E0F4803A09F479C0883A7D
:100C100009F09CCF84E080938402109261021092CC
:100C20006002E091B902F091BA02099580916002E8
:100C300081110FC081E0809360021092400209C0D0
:100C4000803C09F4A6CF883C09F4A3CF883B09F087
:100C50007DCFE091610281E08E0F80936102F0E030
:100C6000E05CFD4F80818093BB0090916102809198
:100C7000600229C08091A9028093BB0085EC80931B
:100C8000BC0064CF9091A8028091A702981758F5F4
:100C9000E091A80281E08E0F8093A802F0E0E9576E
:100CA000FD4F8081E9CFE091A80281E08E0F809313
:100CB000A8028091BB00F0E0E957FD4F808390913E
:100CC000A8028091A7029817C8F285E8D8CFE091D2
:100CD000A80281E08E0F8093A8028091BB00F0E013
:100CE000E957FD4F80838091860281115CCF81E0BE
:100CF0008093850284EA8093BC001092840226CF00
:100D000085EC8093BC001092840280918202803234
:100D100030F4E0918202F0E0EE59FD4F10826091D4
:100D2000820270E0E091B702F091B80282E692E0B0
:100D30000995109282020ACF1092830234CFE9EC17
:100D4000F2E01382128288EE93E0A0E0B0E08483A8
:100D50009583A683B7832BEC31E03183208325EC88
:100D600030E03587248724EC30E03787268720EC75
:100D700030E0318B208B21EC30E0338B228B22EC66
:100D800030E0358B248B26EC30E0378B268B118EB0
:100D9000128E138E148EE6E6F3E0138212828483A1
:100DA0009583A683B7838DED91E091838083089529
:100DB000CF93DF93CDB7DEB7E4970FB6F894DEBFDD
:100DC0000FBECDBF789484B5826084BD84B5816048
:100DD00084BD85B5826085BD85B5816085BD809106
:100DE0006E00816080936E0010928100809181007E
:100DF0008260809381008091810081608093810076
:100E0000809180008160809380008091B100846037
:100E10008093B1008091B00081608093B000809198
:100E20007A00846080937A0080917A008260809357
:100E30007A0080917A00816080937A0080917A00B4
:100E4000806880937A001092C10062E08BE00E947B
:100E5000440262E089E00E94440262E087E00E946E
:100E600044021092BE021092BD021092BC02109277
:100E7000BB020E9497038CE890E09093BA028093A3
:100E8000B9028DE890E09093B8028093B70282E0B7
:100E90008093BA0028ED33E03093C0022093BF0264
:100EA000E091D902F091DA028083E091D502F091CD
:100EB000D6021082E091D702F091D8028FEC8083A5
:100EC0001092E102E091DD02F091DE0286E0808383
:100ED000E091DB02F091DC02808180618083E0910F
:100EE000DB02F091DC02808188608083E091DB028C
:100EF000F091DC02808180688083E091DB02F091D8
:100F0000DC0280818F7D80838BEE91E00E9407045C
:100F100084E092E00E94070481E08093C3028EE0A7
:100F2000E9EAF1E0DE01119601900D928A95E1F770
:100F30007E0183E0E80EF11C11E0812C54E2952E35
:100F400054EFA52EB12C60E8462E6EE3562E612C90
:100F5000712CF701219131917F0150E040E0C501F2
:100F6000B4010E94E808CA01B901A30192010E94DC
:100F7000E808223031054105510508F000C11F5F26
:100F8000173039F78CE0809300012AE0622E712C33
:100F9000812C912C30E2B32ECE0143969CAB8BABCF
:100FA00010E240E5A42E90E7F92E03E784E6E82E50
:100FB00087E092E00E9407042090C1023090C202B4
:100FC000032C000C4408550857FEC3C06DE289ECA1
:100FD00092E00E94570122273327A90122193309E1
:100FE0004409550919A2FE01B1966F01CA01B90160
:100FF000A40193010E94E808605DF60162936F010D
:10100000211531054105510589F7C114D10419F0A5
:10101000C6010E94070484E092E00E9407046CE28B
:1010200071E080E090E00E94A5028BE00E94ED015B
:10103000019741F5EBA9FCA98B2D11928A95E9F74F
:10104000A98291E39A831B83FC82E5E7ED830E83FB
:10105000F8E6FF83188789E68987EA861B87FC867E
:1010600082E78D8785E68E870F87088B898BEA8AD2
:10107000CE0101960E94E9026AE070E080E090E013
:101080000E94A50289E00E94ED01019741F5EBA9BC
:10109000FCA98B2D11928A95E9F7A98282E38A83B4
:1010A0001B83FC8295E79D830E83E8E6EF83188718
:1010B000F9E6F987EA861B87FC8682E78D8785E655
:1010C0008E870F87088B898BEA8ACE0101960E9452
:1010D000E9026AE070E080E090E00E94A50287E00B
:1010E0000E94ED01019741F5EBA9FCA98B2D11920E
:1010F0008A95E9F7A98283E38A831B83FC8295E7BB
:101100009D830E83E8E6EF831887F9E6F987EA8680
:101110001B87FC8682E78D8785E68E870F87088B85
:10112000898BEA8ACE0101960E94E9026AE070E0AA
:1011300080E090E00E94A50280E090E0892B09F415
:1011400037CF0E942101882309F42FCF0E9400008D
:101150002ACFA201910119A2CE0181966C01CA0188
:10116000B901A40193010E94E808605DF601629351
:101170006F01211531054105510589F746CF16301C
:1011800009F400CF1092800088E080938100809164
:101190008100182B109381003093890020938800E0
:1011A00080916F00826080936F0061E08091000108
:1011B0000E94440260E08BE00E94440261E08AE009
:1011C0000E9444026091C3028AE00E941602DACEB5
:1011D000A1E21A2EAA1BBB1BFD010DC0AA1FBB1F3B
:1011E000EE1FFF1FA217B307E407F50720F0A21BAD
:1011F000B30BE40BF50B661F771F881F991F1A941A
:1012000069F760957095809590959B01AC01BD0143
:10121000CF010895EE0FFF1F0590F491E02D099482
:04122000F894FFCF70
:101224000C2A2A2A2A2A2A382C000000000000004E
:1012340000000000000000000000000000000000AA
:10124400000000000000000000000000000000009A
:10125400000000000000000000000000000000008A
:10126400000000000000000000000000000000007A
:10127400000000000000000000000000000000006A
:10128400000000000000000000000000000000005A
:10129400000000000000000000000000000000004A
:1012A400000000000000000000000000000000003A
:1012B400000000000000000000000000000000002A
:1012C40000000000000000000000000100080040D1
:1012D4000000010004050D0D0E131516191A1C2328
:1012E4002526292A2C3234000000005701B700E4D7
:1012F40000A4011501F300070100000000F303E856
:10130400030404B503E103C503B6032A2A2A2A53B6
:101314004C4156452031205445524D494E414C2AAA
:101324002A2A2A000D0A00536C61766520446576EA
:0A1334006963652031203A200000B3
:00000001FF
