:100000000C945D000C9485000C9485000C94850084
:100010000C9485000C9485000C9485000C9485004C
:100020000C9485000C9485000C9485000C9453046A
:100030000C9485000C9485000C9485000C9485002C
:100040000C9409040C9485000C94D7030C94B10310
:100050000C9485000C9485000C9485000C9485000C
:100060000C949A040C948500000000080002010022
:100070000003040700000000000000000000000072
:10008000250028002B0000000000240027002A0083
:10009000040404040404040402020202020203032E
:1000A0000303030301020408102040800102040836
:1000B0001020010204081020B90511241FBECFEF43
:1000C000D8E0DEBFCDBF11E0A0E0B1E0EAEEFEE097
:1000D00002C005900D92A235B107D9F722E0A2E542
:1000E000B1E001C01D92A63AB207E1F710E0CDE5FC
:1000F000D0E004C02197FE010E946D07CC35D107E6
:10010000C9F70E94F2050C9473070C94000090E06C
:10011000FC01EC55FF4F249180579F4FFC018491C7
:10012000882399F090E0880F991FFC01EA57FF4F50
:10013000A591B491FC01E458FF4F859194918FB73C
:10014000F894EC91E22BEC938FBF08950895CF9330
:10015000DF93AC01E091F901F091FA013097F1F0F1
:100160009091F8018091F7019817C0F090E0292F45
:1001700030E02617370754F4D901AE5ABE4F240F8A
:10018000351FE90128812C939F5FF1CF1092F80170
:100190006093F701CB01DF91CF910994DF91CF916B
:1001A0000895AF92BF92CF92DF92EF92FF920F939A
:1001B0001F93CF93DF936C017B018B01040F151FFD
:1001C000EB015E01AE18BF08C017D10759F0699165
:1001D000D601ED91FC910190F081E02DC6010995C9
:1001E000892B79F7C501DF91CF911F910F91FF9076
:1001F000EF90DF90CF90BF90AF900895FC01538DAA
:10020000448D252F30E0842F90E0821B930B5417F0
:1002100010F0CF96089501970895FC01918D828D7D
:10022000981761F0A28DAE0FBF2FB11D5D968C9116
:10023000928D9F5F9F73928F90E008958FEF9FEF55
:100240000895FC01918D828D981731F0828DE80F11
:10025000F11D858D90E008958FEF9FEF0895FC01CB
:10026000918D228D892F90E0805C9F4F821B910998
:100270008F73992708958DEF91E00E942F0121E05F
:10028000892B09F420E0822F089580E090E0892BEB
:1002900029F00E943B0181110C9400000895FC019B
:1002A000A48DA80FB92FB11DA35ABF4F2C91848DD7
:1002B00090E001968F739927848FA689B7892C9334
:1002C000A089B1898C91837080648C93938D848D87
:1002D000981306C00288F389E02D80818F7D80838A
:1002E0000895EF92FF920F931F93CF93DF93EC014A
:1002F00081E0888F9B8D8C8D98131AC0E889F989CD
:10030000808185FF15C09FB7F894EE89FF896083CF
:10031000E889F98980818370806480839FBF81E050
:1003200090E0DF91CF911F910F91FF90EF90089592
:10033000F62E0B8D10E00F5F1F4F0F731127E02E6D
:100340008C8D8E110CC00FB607FCFACFE889F989A5
:10035000808185FFF5CFCE010E944F01F1CFEB8D5B
:10036000EC0FFD2FF11DE35AFF4FF0829FB7F89479
:100370000B8FEA89FB8980818062CFCFCF93DF9397
:10038000EC01888D8823B9F0AA89BB89E889F989AD
:100390008C9185FD03C0808186FD0DC00FB607FCE2
:1003A000F7CF8C9185FFF2CF808185FFEDCFCE0115
:1003B0000E944F01E9CFDF91CF910895833081F002
:1003C00028F4813099F08230A9F008958730A9F09F
:1003D0008830C9F08430B1F4809180008F7D03C0F3
:1003E000809180008F7780938000089584B58F7707
:1003F00084BD089584B58F7DFBCF8091B0008F7749
:100400008093B00008958091B0008F7DF9CF1F9345
:10041000CF93DF93282F30E0F901E859FF4F849103
:10042000F901EC55FF4FD491F901E057FF4FC4910A
:10043000CC23A9F0162F81110E94DE01EC2FF0E0F1
:10044000EE0FFF1FE458FF4FA591B4918FB7F894BA
:10045000EC91111108C0D095DE23DC938FBFDF91A2
:10046000CF911F910895DE2BF8CF1F93CF93DF9389
:10047000182FEB010E948700209739F460E0812F4C
:10048000DF91CF911F910C940702CF3FD10511F45A
:1004900061E0F5CFE12FF0E0E859FF4FE491E33060
:1004A00031F140F4E130B1F0E230E1F0C038D10593
:1004B0007CF7E4CFE73029F1E83059F1E430B1F7C7
:1004C00080918000806280938000D0938B00C093E5
:1004D0008A0004C084B5806884BDC7BDDF91CF9118
:1004E0001F91089584B5806284BDC8BDF7CF809107
:1004F0008000806880938000D0938900C09388003A
:10050000EDCF8091B00080688093B000C093B300BD
:10051000E5CF8091B00080628093B000C093B400BA
:10052000DDCF3FB7F8948091ED019091EE01A0915D
:10053000EF01B091F00126B5A89B05C02F3F19F03F
:100540000196A11DB11D3FBFBA2FA92F982F882753
:10055000BC01CD01620F711D811D911D42E0660F2E
:10056000771F881F991F4A95D1F708952091980108
:10057000260F3327331F21323105ECF42091BC01C3
:10058000FC0190E080E0243069F082E00895A091C1
:1005900098012191AC0148585E4FA40FB52FB11DB1
:1005A0002C930196861798F380919801680F6093B9
:1005B000980180E0089581E008951092BC0181E0E7
:1005C0008093BE011092BD0161E082E10E940702AA
:1005D00061E083E10E940702E9EBF0E080818E7F19
:1005E000808380818D7F808388E48093B80085E458
:1005F0008093BC0008950895E091F8018091F7017F
:10060000E81730F4F0E0EE5AFE4F808190E0089554
:100610008FEF9FEF08959091F8018091F7012FEFF0
:100620003FEF981748F4E92FF0E0EE5AFE4F208193
:1006300030E09F5F9093F801C90108958AE992E044
:100640000E940B039093FC018093FB01089580911D
:10065000F7019091F801891B990B0895CF93DF93CF
:10066000CB01EA01642F0E94B602CE01DF91CF9147
:100670000895CF93DF931F92CDB7DEB7698361E012
:10068000CE0101960E94B60281E090E00F90DF91CA
:10069000CF91089590E080E00895FC010190002042
:1006A000E9F73197AF01481B590BBC018DEF91E081
:1006B0000C94D100CF93DF9385ED8093BC008091A3
:1006C000740190917501A0917601B0917701079620
:1006D000A11DB11D23E0B695A795979587952A95FD
:1006E000D1F72091BC0024FD03C01092BC0136C09C
:1006F000409174015091750160917601709177017C
:10070000452B462B472B69F30097A105B10541F016
:1007100025E32A95F1F700000197A109B109E1CF7E
:100720008091730191E0909372018823B9F0C09198
:10073000B800D091BA008091BC008A7B8093BC0045
:1007400060E082E10E94070260E083E10E9407020C
:100750000E94DD02D093BA00C093B800DF91CF9120
:1007600008951F920F920FB60F9211242F933F936B
:100770004F935F936F937F938F939F93AF93BF93A9
:10078000EF93FF938DEF91E00E944F01FF91EF9166
:10079000BF91AF919F918F917F916F915F914F9199
:1007A0003F912F910F900FBE0F901F9018951F92A1
:1007B0000F920FB60F9211242F938F939F93EF9365
:1007C000FF93E0910D02F0910E028081E0911302FF
:1007D000F091140282FD1BC09081809116028F5F00
:1007E0008F7320911702821741F0E0911602F0E01A
:1007F000E350FE4F958F80931602FF91EF919F91EA
:100800008F912F910F900FBE0F901F9018958081A0
:10081000F4CF1F920F920FB60F9211242F933F9394
:100820008F939F93AF93BF938091E9019091EA01D9
:10083000A091EB01B091EC013091E80123E0230F8E
:100840002D3758F50196A11DB11D2093E801809325
:10085000E9019093EA01A093EB01B093EC01809140
:10086000ED019091EE01A091EF01B091F0010196A0
:10087000A11DB11D8093ED019093EE01A093EF01B6
:10088000B093F001BF91AF919F918F913F912F91C4
:100890000F900FBE0F901F90189526E8230F029619
:1008A000A11DB11DD2CF1F920F920FB60F9211242E
:1008B0002F933F934F935F936F937F938F939F9368
:1008C000AF93BF93EF93FF938091E7018823D9F013
:1008D0008091E60191E0980F9093E601811113C099
:1008E00060E08AE00E94070260E08CE00E9407025C
:1008F0001092E7018091E4019091E50101969093B7
:10090000E5018093E4018091E601883010F01092B7
:10091000E601FF91EF91BF91AF919F918F917F91F0
:100920006F915F914F913F912F910F900FBE0F905C
:100930001F9018951F920F920FB60F9211242F93AC
:100940003F934F935F936F937F938F939F93AF9357
:10095000BF93EF93FF938091B900887F803609F4AD
:100960004AC0F0F5883209F4A7C018F5803109F4BF
:100970009BC0B8F4882309F4F9C0883009F494C006
:10098000FF91EF91BF91AF919F918F917F916F9167
:100990005F914F913F912F910F900FBE0F901F903D
:1009A0001895883109F488C0803251F78093BB01D3
:1009B00014C0803409F49DC040F48033B9F3883307
:1009C000F9F68093BB0185ECB0C0803509F485C091
:1009D000883509F496C0883499F60E945A03D0CF1E
:1009E000883909F48CC038F5883729F050F48836F6
:1009F00011F0803729F683E08093BC011092BA0190
:100A000057C0883809F47BC0803919F0803809F064
:100A1000B7CF8091BA01803208F071C0E091BA017D
:100A200081E08E0F8093BA018091BB00F0E0E65622
:100A3000FE4F80833DC0803B39F0E0F4803A09F4FA
:100A400079C0883A09F09CCF84E08093BC01109271
:100A5000990110929801E091F301F091F401099548
:100A60008091980181110FC081E0809398011092CC
:100A7000780109C0803C09F4A6CF883C09F4A3CFD3
:100A8000883B09F07DCFE091990181E08E0F809342
:100A90009901F0E0E858FE4F80818093BB0090916F
:100AA00099018091980129C08091E1018093BB0058
:100AB00085EC8093BC0064CF9091E0018091DF01D0
:100AC000981758F5E091E00181E08E0F8093E001E6
:100AD000F0E0E154FE4F8081E9CFE091E00181E058
:100AE0008E0F8093E0018091BB00F0E0E154FE4F57
:100AF00080839091E0018091DF019817C8F285E82A
:100B0000D8CFE091E00181E08E0F8093E0018091E9
:100B1000BB00F0E0E154FE4F80838091BE01811163
:100B20005CCF81E08093BD0184EA8093BC00109289
:100B3000BC0126CF85EC8093BC001092BC01809153
:100B4000BA01803230F4E091BA01F0E0E656FE4F8F
:100B500010826091BA0170E0E091F101F091F20130
:100B60008AE991E009951092BA010ACF1092BB016F
:100B700034CFEDEFF1E01382128288EE93E0A0E033
:100B8000B0E084839583A683B78324E031E031838A
:100B9000208325EC30E03587248724EC30E037874C
:100BA000268720EC30E0318B208B21EC30E0338B3A
:100BB000228B22EC30E0358B248B26EC30E0378B17
:100BC000268B118E128E138E148EEAE9F2E01382B8
:100BD000128284839583A683B78386E191E0918313
:100BE00080830895CF93DF93CDB7DEB7A1970FB67B
:100BF000F894DEBF0FBECDBF789484B5826084BD0B
:100C000084B5816084BD85B5826085BD85B5816010
:100C100085BD80916E00816080936E00109281008E
:100C20008091810082608093810080918100816049
:100C3000809381008091800081608093800080910A
:100C4000B10084608093B1008091B0008160809396
:100C5000B00080917A00846080937A0080917A005D
:100C6000826080937A0080917A00816080937A001C
:100C700080917A00806880937A001092C10089E0A8
:100C80000E9487008AE00E9487008BE00E94870014
:100C90001092F8011092F7011092F6011092F501EE
:100CA0000E94DD0286EA90E09093F4018093F301C4
:100CB00087EA90E09093F2018093F10184E08093C1
:100CC000BA008EE193E09093FA018093F901E091EC
:100CD0000D02F0910E0282E08083E0910902F09112
:100CE0000A021082E0910B02F0910C028FEC8083DB
:100CF00010921502E0911102F091120286E08083B9
:100D0000E0910F02F0911002808180618083E09178
:100D10000F02F0911002808188608083E0910F02C1
:100D2000F0911002808180688083E0910F02F09141
:100D3000100280818F7D808384E291E00E944D03C8
:100D40008DE391E00E944D032AE0422E512C612C4C
:100D5000712C22242A94312C00E010E080E491E0F0
:100D60000E944D03C090FB01D090FC010D2C000CA3
:100D7000EE08FF08F7FE79C06DE28DEF91E00E946A
:100D8000710122273327A9012C193D094E095F095A
:100D900019A2CE0181967C01CA01B901A301920179
:100DA0000E944B07605DF70162937F0121153105B9
:100DB0004105510589F7E114F10419F0C7010E94BA
:100DC0004D038DE391E00E944D030E9491024B017F
:100DD0005C019CE2C92EDD24D394E12CF12C0E940D
:100DE0009102681979098A099B09683E7340810557
:100DF0009105A8F3F1E0CF1AD108E108F10828EE37
:100E0000820E23E0921EA11CB11CC114D104E10486
:100E1000F10429F76091FB017091FC0164517109A3
:100E2000660F771F660F771F7101E61AF70AF7FE44
:100E300004C06FEF70E0F12CE12C89E00E943502D4
:100E400070E060E08AE00E943502B7018BE00E940A
:100E500035020115110509F481CF0E943B01882359
:100E600009F47CCF0E94000079CFA701960119A256
:100E7000CE0181967C01CA01B901A30192010E94B1
:100E80004B07605DF70162937F0121153105410534
:100E9000510589F790CFA1E21A2EAA1BBB1BFD01B9
:100EA0000DC0AA1FBB1FEE1FFF1FA217B307E40749
:100EB000F50720F0A21BB30BE40BF50B661F771FA1
:100EC000881F991F1A9469F7609570958095909581
:100ED0009B01AC01BD01CF010895EE0FFF1F0590EE
:0A0EE000F491E02D0994F894FFCF7F
:100EEA00000000007101D100FE00BE012F010D01BA
:100EFA0021010000000039032E034A03FB022703E5
:100F0A000B03FC022A2A2A2A534C41564520322036
:100F1A005445524D494E414C2A2A2A2A000D0A00AC
:100F2A00536C617665204465766963652032203AA0
:020F3A00200095
:00000001FF
