:100000000C9462000C948A000C948A000C948A0070
:100010000C948A000C948A000C948A000C948A0038
:100020000C948A000C948A000C948A000C942F057E
:100030000C948A000C948A000C948A000C948A0018
:100040000C94E5040C948A000C94B3040C948D0475
:100050000C948A000C948A000C948A000C948A00F8
:100060000C9476050C948A00000000002300260002
:10007000290000000008000201000003040700003E
:1000800000000000000000000000250028002B00F8
:1000900000000000240027002A00040404040404D3
:1000A0000404020202020202030303030303010227
:1000B00004081020408001020408102001020408F6
:1000C0001020950611241FBECFEFD8E0DEBFCDBFB4
:1000D00011E0A0E0B1E0E6E4F3E102C005900D928A
:1000E000AC34B107D9F722E0ACE4B1E001C01D9215
:1000F000AB3CB207E1F710E0C2E6D0E004C02197C4
:10010000FE010E949B09C136D107C9F70E94CE06A5
:100110000C94A1090C94000008950895AF92BF9229
:10012000CF92DF92EF92FF920F931F93CF93DF93C3
:100130006C017B018B01040F151FEB015E01AE18F2
:10014000BF08C017D10759F06991D601ED91FC9114
:100150000190F081E02DC6010995892B79F7C50141
:10016000DF91CF911F910F91FF90EF90DF90CF9093
:10017000BF90AF900895FC01538D448D252F30E042
:10018000842F90E0821B930B541710F0CF960895A4
:1001900001970895FC01918D828D981761F0A28DD1
:1001A000AE0FBF2FB11D5D968C91928D9F5F9F7397
:1001B000928F90E008958FEF9FEF0895FC01918D4D
:1001C000828D981731F0828DE80FF11D858D90E0BA
:1001D00008958FEF9FEF0895FC01918D228D892F57
:1001E00090E0805C9F4F821B91098F73992708953F
:1001F00082E292E00E94EC0021E0892B09F420E0E9
:10020000822F089580E090E0892B29F00E94F80069
:1002100081110C9400000895FC01A48DA80FB92F42
:10022000B11DA35ABF4F2C91848D90E001968F731E
:100230009927848FA689B7892C93A089B1898C913D
:10024000837080648C93938D848D981306C002888C
:10025000F389E02D80818F7D80830895EF92FF9256
:100260000F931F93CF93DF93EC0181E0888F9B8DD9
:100270008C8D98131AC0E889F989808185FF15C093
:100280009FB7F894EE89FF896083E889F9898081B6
:100290008370806480839FBF81E090E0DF91CF9185
:1002A0001F910F91FF90EF900895F62E0B8D10E0A7
:1002B0000F5F1F4F0F731127E02E8C8D8E110CC016
:1002C0000FB607FCFACFE889F989808185FFF5CF61
:1002D000CE010E940C01F1CFEB8DEC0FFD2FF11D33
:1002E000E35AFF4FF0829FB7F8940B8FEA89FB899E
:1002F00080818062CFCFCF93DF93EC01888D8823FC
:10030000B9F0AA89BB89E889F9898C9185FD03C078
:10031000808186FD0DC00FB607FCF7CF8C9185FF5D
:10032000F2CF808185FFEDCFCE010E940C01E9CF95
:10033000DF91CF910895833081F028F4813099F0D6
:100340008230A9F008958730A9F08830C9F0843050
:10035000B1F4809180008F7D03C0809180008F7701
:1003600080938000089584B58F7784BD089584B507
:100370008F7DFBCF8091B0008F778093B000089580
:100380008091B0008F7DF9CFCF93DF93282F30E09D
:10039000F901EE58FF4F8491F901E255FF4FD491D6
:1003A000F901E656FF4FC491CC23A1F081110E94C0
:1003B0009B01EC2FF0E0EE0FFF1FE859FF4FA591D6
:1003C000B491EC91ED2381E090E009F480E0DF91BD
:1003D000CF91089580E090E0FACF1F93CF93DF9301
:1003E000282F30E0F901EE58FF4F8491F901E255D2
:1003F000FF4FD491F901E656FF4FC491CC23A9F0E9
:10040000162F81110E949B01EC2FF0E0EE0FFF1FD1
:10041000EA57FF4FA591B4918FB7F894EC91111161
:1004200008C0D095DE23DC938FBFDF91CF911F9161
:100430000895DE2BF8CF3FB7F8948091BB019091DF
:10044000BC01A091BD01B091BE0126B5A89B05C01D
:100450002F3F19F00196A11DB11D3FBFBA2FA92F43
:10046000982F8827BC01CD01620F711D811D911D40
:1004700042E0660F771F881F991F4A95D1F70895AC
:100480008F929F92AF92BF92CF92DF92EF92FF92A4
:100490004B015C010E941B026B017C010E941B024C
:1004A0006C197D098E099F09683E7340810591058D
:1004B000A8F321E0821A9108A108B10888EEC80EBD
:1004C00083E0D81EE11CF11C81149104A104B10445
:1004D00029F7FF90EF90DF90CF90BF90AF909F9063
:1004E0008F90089520918D01260F3327331F2132DD
:1004F0003105ECF42091F801FC0190E080E024301B
:1005000069F082E00895A0918D012191AC014359D9
:100510005E4FA40FB52FB11D2C930196861798F34B
:1005200080918D01680F60938D0180E0089581E0D6
:1005300008951092F80181E08093F7011092D201A2
:1005400061E082E10E94ED0161E083E10E94ED0142
:10055000E9EBF0E080818E7F808380818D7F8083D6
:1005600088E48093B80085E48093BC000895CF931D
:10057000DF9391E090936C018823B9F0C091B800AB
:10058000D091BA008091BC008A7B8093BC0060E06F
:1005900082E10E94ED0160E083E10E94ED010E9492
:1005A0009902D093BA00C093B800DF91CF9108951B
:1005B000CF92DF92EF92FF920F931F93CF93DF932F
:1005C000D091210281E0D13208F09CC0C09120027C
:1005D0000E941B026B017C018091F80181116CC0AB
:1005E00082E08093F80181E08093F7018FEF8093A0
:1005F000F6011092F501D093F401A0E0B2E0E4ED31
:10060000F1E080E0D8138DC01092D3018091D30126
:10061000CC0FC82BC093D3018091D201813009F057
:1006200084C01092D2010E941B026B017C01809158
:10063000D3018093BB008091FA019091FB01A091BE
:10064000FC01B091FD01892B8A2B8B2BA1F00E941C
:100650001B020091FA011091FB012091FC013091E5
:10066000FD016C197D098E099F09061717072807D8
:10067000390708F442C08091BC0083FDD8CF85ECD7
:100680008093BC000E941B026B017C018091F801E9
:10069000823009F44CC08091F6018F3F09F469C0A3
:1006A0008091F601803209F466C08091F6018033B2
:1006B00009F463C084E026C08091FA019091FB01A7
:1006C000A091FC01B091FD01892B8A2B8B2B09F4A1
:1006D00083CF0E941B020091FA011091FB0120912F
:1006E000FC013091FD016C197D098E099F090617E7
:1006F00017072807390708F06FCF8091F9010E948A
:10070000B70285E01092FF01109221021092FE01C3
:10071000DF91CF911F910F91FF90EF90DF90CF90DD
:1007200008959D9191938F5F6DCF85EEA9CF8091B4
:10073000FA019091FB01A091FC01B091FD01892B80
:100740008A2B8B2B09F4A2CF0E941B020091FA0185
:100750001091FB012091FC013091FD016C197D0984
:100760008E099F09061717072807390708F08ECF4B
:10077000C4CF80E0C7CF82E0C5CF83E0C3CF089568
:10078000E091C4018091C301E81730F4F0E0E45B2C
:10079000FE4F808190E008958FEF9FEF0895909134
:1007A000C4018091C3012FEF3FEF981748F4E92F60
:1007B000F0E0E45BFE4F208130E09F5F9093C40146
:1007C000C90108958091C3019091C401891B990BBF
:1007D0000895CF92DF92EF92FF920F931F93CF93E2
:1007E000DF937C01CB018A012091FE01222389F055
:1007F000EB016B01C40ED51ECC15DD0569F06991C6
:10080000D701ED91FC910190F081E02DC701099590
:10081000F3CF642F0E947202C801DF91CF911F9124
:100820000F91FF90EF90DF90CF900895CF93DF93DB
:100830001F92CDB7DEB769832091FE012223F9F024
:1008400020912102203258F021E030E0FC01338376
:10085000228390E080E00F90DF91CF910895809106
:10086000FF01E82FF0E0E050FE4F998190838F5F09
:100870008093FF018093210281E090E0ECCF61E062
:10088000CE0101960E947202F7CF90E080E00895B9
:10089000FC0101900020E9F73197AF01481B590B8B
:1008A000BC0182E292E00C948E0085ED8093BC0046
:1008B0008091FA019091FB01A091FC01B091FD01A2
:1008C0000796A11DB11D23E0B695A795979587952D
:1008D0002A95D1F72091BC0024FD03C01092F801A5
:1008E00008954091FA015091FB016091FC017091D3
:1008F000FD01452B462B472B69F30097A105B10558
:1009000041F025E32A95F1F700000197A109B1090B
:10091000E1CF8091F9010C94B7021F920F920FB6AC
:100920000F9211242F933F934F935F936F937F9375
:100930008F939F93AF93BF93EF93FF9382E292E0E5
:100940000E940C01FF91EF91BF91AF919F918F9108
:100950007F916F915F914F913F912F910F900FBEBB
:100960000F901F9018951F920F920FB60F9211249F
:100970002F938F939F93EF93FF93E0913202F09127
:1009800033028081E0913802F091390282FD1BC070
:10099000908180913B028F5F8F7320913C02821780
:1009A00041F0E0913B02F0E0EE5DFD4F958F8093CA
:1009B0003B02FF91EF919F918F912F910F900FBE6E
:1009C0000F901F9018958081F4CF1F920F920FB651
:1009D0000F9211242F933F938F939F93AF93BF93C5
:1009E0008091B7019091B801A091B901B091BA017D
:1009F0003091B60123E0230F2D3758F50196A11D44
:100A0000B11D2093B6018093B7019093B801A093D4
:100A1000B901B093BA018091BB019091BC01A09142
:100A2000BD01B091BE010196A11DB11D8093BB0116
:100A30009093BC01A093BD01B093BE01BF91AF9153
:100A40009F918F913F912F910F900FBE0F901F900C
:100A5000189526E8230F0296A11DB11DD2CF1F9233
:100A60000F920FB60F9211242F933F934F935F93E2
:100A70006F937F938F939F93AF93BF93EF93FF9366
:100A80008091B5018823D9F08091B40191E0980F4D
:100A90009093B401811113C060E08AE00E94ED01DF
:100AA00060E08CE00E94ED011092B5018091B201EE
:100AB0009091B30101969093B3018093B20180911C
:100AC000B401883010F01092B401FF91EF91BF9102
:100AD000AF919F918F917F916F915F914F913F91D6
:100AE0002F910F900FBE0F901F9018951F920F928D
:100AF0000FB60F9211242F933F934F935F936F93F1
:100B00007F938F939F93AF93BF93EF93FF938091C6
:100B1000B900887F803609F44AC0F0F5883209F4BC
:100B2000A7C018F5803109F49BC0B8F4882309F4F4
:100B3000F9C0883009F494C0FF91EF91BF91AF9153
:100B40009F918F917F916F915F914F913F912F91E5
:100B50000F900FBE0F901F901895883109F488C030
:100B6000803251F78093F60114C0803409F49DC09F
:100B700040F48033B9F38833F9F68093F60185ECBD
:100B8000B0C0803509F485C0883509F496C0883432
:100B900099F60E945504D0CF883909F48CC038F5F5
:100BA000883729F050F4883611F0803729F683E031
:100BB0008093F8011092AF0157C0883809F47BC0C8
:100BC000803919F0803809F0B7CF8091AF018032B9
:100BD00008F071C0E091AF0181E08E0F8093AF010A
:100BE0008091BB00F0E0E157FE4F80833DC0803B29
:100BF00039F0E0F4803A09F479C0883A09F09CCFE2
:100C000084E08093F80110928E0110928D01E091A2
:100C1000C101F091C201099580918D0181110FC030
:100C200081E080938D0110926D0109C0803C09F430
:100C3000A6CF883C09F4A3CF883B09F07DCFE09193
:100C40008E0181E08E0F80938E01F0E0E359FE4F1C
:100C500080818093BB0090918E0180918D0129C08D
:100C60008091D3018093BB0085EC8093BC0064CF5E
:100C70009091F5018091F401981758F5E091F501F4
:100C800081E08E0F8093F501F0E0EC52FE4F808101
:100C9000E9CFE091F50181E08E0F8093F50180911D
:100CA000BB00F0E0EC52FE4F80839091F501809103
:100CB000F4019817C8F285E8D8CFE091F50181E0FA
:100CC0008E0F8093F5018091BB00F0E0EC52FE4F57
:100CD00080838091F70181115CCF81E08093D20104
:100CE00084EA8093BC001092F80126CF85EC8093B3
:100CF000BC001092F8018091AF01803230F4E09195
:100D0000AF01F0E0E157FE4F10826091AF0170E05B
:100D1000E091BF01F091C0018FE891E00995109238
:100D2000AF010ACF1092F60134CFE2E2F2E0138273
:100D3000128288EE93E0A0E0B0E084839583A683DE
:100D4000B78324E031E03183208325EC30E0358720
:100D5000248724EC30E03787268720EC30E0318B85
:100D6000208B21EC30E0338B228B22EC30E0358B72
:100D7000248B26EC30E0378B268B118E128E138E4F
:100D8000148EEFEBF2E01382128284839583A683A4
:100D9000B78386E191E0918380830895CF93DF93B9
:100DA000CDB7DEB7A1970FB6F894DEBF0FBECDBFAB
:100DB000789484B5826084BD84B5816084BD85B536
:100DC000826085BD85B5816085BD80916E00816042
:100DD00080936E00109281008091810082608093E8
:100DE00081008091810081608093810080918000EA
:100DF0008160809380008091B10084608093B10015
:100E00008091B00081608093B00080917A0084600E
:100E100080937A0080917A00826080937A0080913A
:100E20007A00816080937A0080917A008068809354
:100E30007A001092C1001092C4011092C301109266
:100E4000FF01109221020E9499028CE890E0909399
:100E5000C2018093C1018DE890E09093C00180931E
:100E6000BF01E0913202F091330282E08083E09191
:100E70002E02F0912F021082E0913002F0913102A7
:100E80008FEC808310923A02E0913602F0913702A3
:100E900086E08083E0913402F091350280818061A8
:100EA0008083E0913402F0913502808188608083F4
:100EB000E0913402F0913502808180688083E09176
:100EC0003402F091350280818F7D808384E291E04D
:100ED0000E9448048CE391E00E94480457EB252EC1
:100EE00050E0352E6AE0862E912CA12CB12C109268
:100EF000CD011092CE011092CF011092D00110922C
:100F0000D101F1012491E3EAF0E08491882399F082
:100F100090E0880F991FFC01E057FF4FA591B49115
:100F2000FC01EA57FF4F859194918FB7F8949C91FB
:100F3000292B2C938FBF60E089E00E94ED0164E1D2
:100F400070E080E090E00E94400261E089E00E9451
:100F5000ED018BE990E00197F1F7F1012491E3EACB
:100F6000F0E084918823C1F090E0880F991FFC0184
:100F7000E057FF4FA591B491FC01EA57FF4F8591CF
:100F800094914FB7F8943C91209532233C93FC0107
:100F90003081232320834FBF01E117E289E00E94C3
:100FA000C401892B09F080C001501109B9F78FE302
:100FB00091E00E9448046091C5017091C601809142
:100FC000C7019091C8010E94FF086B012B01770FA8
:100FD0006608770877FEDBC06DE282E292E00E944D
:100FE0002E0122273327A90124193509460957095B
:100FF00019A28E010F5D1F4FCA01B901A50194010D
:101000000E94DD08605DF80162938F0121153105B2
:101010004105510589F70115110519F0C8010E9414
:1010200048048CE391E00E9448046AE070E080E0AC
:1010300090E00E94400211E01093FE011093200204
:101040001092FF01109221026C2D8FEB92E00E9412
:1010500016040E94D8026AE070E080E090E00E94EE
:1010600040021093FE01F2E0F09320021092FF0183
:10107000109221026C2D8FEB92E00E9416040E94C8
:10108000D8026AE070E080E090E00E94400280E0D8
:1010900090E0892B09F42BCF0E94F800882309F4F3
:1010A00026CF0E94000023CF01E117E289E00E94D1
:1010B000C401019721F401501109C1F778CF28E24A
:1010C000E22EF12C17E000E091E1C92E97E2D92E33
:1010D00089E00E94C401892B29F4F1E0CF1AD108DC
:1010E000B9F765CF0E941B022B013C0181E1C82E9C
:1010F00087E2D82E89E00E94C401019729F481E09B
:10110000C81AD108B9F753CF0E941B026419750998
:1011100086099709693271058105910570F0E02F04
:10112000F0E0EB53FE4F808521E030E0012E01C05E
:10113000220F0A94EAF7822B8087111126C00F5FD5
:1011400017E091E0E91AF10809F0BECF6091CD01F6
:1011500070E090E080E00E9435096093C5017093D3
:10116000C6018093C7019093C8016091CF0170E0E0
:1011700090E080E00E9435096093C9017093CA0134
:101180008093CB019093CC0112CF1150DACFA30101
:10119000920119A28E010F5D1F4FCA01B901A5016D
:1011A00094010E94DD08605DF80162938F012115B2
:1011B00031054105510589F72ECFA1E21A2EAA1B50
:1011C000BB1BFD010DC0AA1FBB1FEE1FFF1FA217F7
:1011D000B307E407F50720F0A21BB30BE40BF50BF4
:1011E000661F771F881F991F1A9469F7609570957D
:1011F000809590959B01AC01BD01CF0108950E949F
:1012000006096894B1110C94950908950E947A0911
:1012100088F09F5798F0B92F9927B751B0F0E1F0B7
:10122000660F771F881F991F1AF0BA95C9F714C067
:10123000B13091F00E949409B1E008950C949409A2
:10124000672F782F8827B85F39F0B93FCCF38695A0
:1012500077956795B395D9F73EF4909580957095FD
:1012600061957F4F8F4F9F4F0895E89409C097FB7A
:101270003EF490958095709561957F4F8F4F9F4F6D
:101280009923A9F0F92F96E9BB279395F6958795B1
:1012900077956795B795F111F8CFFAF4BB0F11F474
:1012A00060FF1BC06F5F7F4F8F4F9F4F16C088231B
:1012B00011F096E911C0772321F09EE8872F762F51
:1012C00005C0662371F096E8862F70E060E02AF092
:1012D0009A95660F771F881FDAF7880F969587957E
:1012E00097F9089557FD9058440F551F59F05F3FE7
:1012F00071F04795880F97FB991F61F09F3F79F038
:1013000087950895121613061406551FF2CF4695B9
:10131000F1DF08C0161617061806991FF1CF86953B
:101320007105610508940895E894BB27662777271F
:10133000CB0197F90895EE0FFF1F0590F491E02D72
:061340000994F894FFCFB0
:10134600000000002E018E00BB007B01EC00CA00ED
:10135600DE00000000001604E9034504BF03E203B3
:10136600CF03C0032A2A2A2A4D41535445522054FA
:1013760045524D494E414C2A2A2A2A000D0A004858
:0C138600756D6964697479203D200000D9
:00000001FF
