:100000000C9462000C948A000C948A000C948A0070
:100010000C948A000C948A000C948A000C948A0038
:100020000C948A000C948A000C948A000C942E0381
:100030000C948A000C948A000C948A000C948A0018
:100040000C94E4020C948A000C94B2020C948C027E
:100050000C948A000C948A000C948A000C948A00F8
:100060000C948A000C948A000000000023002600F3
:10007000290000000000240027002A0000000000E2
:10008000250028002B0004040404040404040202D4
:100090000202020203030303030301020408102007
:1000A0004080010204081020010204081020000012
:1000B0000008000201000003040700000000000027
:1000C0000000960611241FBECFEFD8E0DEBFCDBFE3
:1000D00022E0A0E6B1E001C01D92AF36B207E1F721
:1000E00011E0A0E0B1E0EEE3F2E102C005900D9274
:1000F000A036B107D9F710E0C2E6D0E004C02197DE
:10010000FE010E941C07C136D107C9F70E946A048C
:100110000C941D090C940000AF92BF92CF92DF9215
:10012000EF92FF920F931F93CF93DF936C017B01AC
:100130008B01040F151FEB015E01AE18BF08C0173D
:10014000D10759F06991D601ED91FC910190F081B0
:10015000E02DC6010995892B79F7C501DF91CF9173
:100160001F910F91FF90EF90DF90CF90BF90AF90D5
:100170000895FC01538D448D252F30E0842F90E0AD
:10018000821B930B541710F0CF9608950197089592
:10019000FC01918D828D981761F0A28DAE0FBF2F5B
:1001A000B11D5D968C91928D9F5F9F73928F90E0B1
:1001B00008958FEF9FEF0895FC01918D828D981720
:1001C00031F0828DE80FF11D858D90E008958FEF5D
:1001D0009FEF0895FC01918D228D892F90E0805C26
:1001E0009F4F821B91098F73992708958EEC91E0A0
:1001F0000E94EA0021E0892B09F420E0822F089573
:1002000080E090E0892B29F00E94F60081110C9487
:1002100000000895FC01A48DA80FB92FB11DA35AA9
:10022000BF4F2C91848D90E001968F739927848F16
:10023000A689B7892C93A089B1898C918370806439
:100240008C93938D848D981306C00288F389E02DDA
:1002500080818F7D80830895EF92FF920F931F938B
:10026000CF93DF93EC0181E0888F9B8D8C8D981369
:100270001AC0E889F989808185FF15C09FB7F89475
:10028000EE89FF896083E889F989808183708064C1
:1002900080839FBF81E090E0DF91CF911F910F910C
:1002A000FF90EF900895F62E0B8D10E00F5F1F4F1B
:1002B0000F731127E02E8C8D8E110CC00FB607FC2A
:1002C000FACFE889F989808185FFF5CFCE010E94B8
:1002D0000A01F1CFEB8DEC0FFD2FF11DE35AFF4F1B
:1002E000F0829FB7F8940B8FEA89FB898081806246
:1002F000CFCFCF93DF93EC01888D8823B9F0AA8903
:10030000BB89E889F9898C9185FD03C0808186FDD0
:100310000DC00FB607FCF7CF8C9185FFF2CF80811F
:1003200085FFEDCFCE010E940A01E9CFDF91CF9189
:100330000895833081F028F4813099F08230A9F05B
:1003400008958730A9F08830C9F08430B1F48091E5
:1003500080008F7D03C0809180008F778093800024
:10036000089584B58F7784BD089584B58F7DFBCFC4
:100370008091B0008F778093B00008958091B00095
:100380008F7DF9CF1F93CF93DF93282F30E0F901B2
:10039000E255FF4F8491F901E656FF4FD491F901E0
:1003A000EA57FF4FC491CC23A9F0162F81110E9468
:1003B0009901EC2FF0E0EE0FFF1FE458FF4FA591DD
:1003C000B4918FB7F894EC91111108C0D095DE2349
:1003D000DC938FBFDF91CF911F910895DE2BF8CF73
:1003E000CF93DF9390E0FC01E656FF4F24918A57AC
:1003F0009F4FFC0184918823D1F090E0880F991FD2
:10040000FC01EE58FF4FA591B491FC01E458FF4F59
:10041000C591D49161110EC09FB7F8948C91E22FD1
:10042000E0958E238C932881E223E8839FBFDF91A0
:10043000CF9108958FB7F894EC91E22BEC938FBF96
:10044000F6CF42E050E067E371E08EEC91E00C946F
:100450008C00CF93DF93EC0188819981009711F094
:100460000E94BE07198218821D821C821B821A827A
:10047000DF91CF910895FC0180819181009711F067
:100480000C94BE0708950F931F93CF93DF93EC0155
:1004900088819981009759F02A813B812617370777
:1004A00030F081E0DF91CF911F910F9108958B0182
:1004B0006F5F7F4F0E944708009759F099838883A8
:1004C0001B830A832C813D81232B59F7FC01108269
:1004D000E8CF80E0E7CFEF92FF920F931F93CF9387
:1004E000DF93EC017B018A01BA010E944302811172
:1004F0000BC0CE010E942902CE01DF91CF911F9146
:100500000F91FF90EF9008951D830C83B7018881B0
:1005100099810E941609F0CF1F920F920FB60F9289
:1005200011242F933F934F935F936F937F938F93F8
:100530009F93AF93BF93EF93FF938EEC91E00E9454
:100540000A01FF91EF91BF91AF919F918F917F91A0
:100550006F915F914F913F912F910F900FBE0F9030
:100560001F9018951F920F920FB60F9211242F9380
:100570008F939F93EF93FF93E091DE01F091DF0162
:100580008081E091E401F091E50182FD1BC0908142
:100590008091E7018F5F8F732091E801821741F00E
:1005A000E091E701F0E0E253FE4F958F8093E70181
:1005B000FF91EF919F918F912F910F900FBE0F9010
:1005C0001F9018958081F4CF1F920F920FB60F9253
:1005D00011242F933F938F939F93AF93BF93809159
:1005E000730190917401A0917501B09176013091E1
:1005F000720123E0230F2D3758F50196A11DB11D7F
:10060000209372018093730190937401A0937501FC
:10061000B093760180916E0190916F01A09170016D
:10062000B09171010196A11DB11D80936E0190934F
:100630006F01A0937001B0937101BF91AF919F9131
:100640008F913F912F910F900FBE0F901F90189593
:1006500026E8230F0296A11DB11DD2CF1F920F9243
:100660000FB60F9211241F932F933F934F935F93D5
:100670006F937F938F939F93AF93BF93CF93DF93AA
:10068000EF93FF9310917901112339F180916D015E
:10069000811123C02091000130E0F901E255FF4FA4
:1006A0008491F901E656FF4FD491F901EA57FF4FC3
:1006B000C491CC2379F081110E949901EC2FF0E0D4
:1006C000EE0FFF1FE859FF4FA591B491EC91DE2387
:1006D00081E009F480E080936C0180916D018823B2
:1006E000E1F080916B0191E0980F90936B01811183
:1006F00014C0609177018AE00E94C20160E08CE042
:100700000E94C20110926D018091690190916A016D
:10071000019690936A018093690180916B01883002
:1007200010F010926B01112309F492C080916D01B9
:1007300081118EC090916C01992329F080916801FC
:100740008F5F809368018091660120916701921705
:1007500009F44AC02BE0803508F02DE1820F809328
:1007600066019093670120916601203A08F470C0F9
:1007700080916401909165019695879590936501AC
:100780008093640130916801353028F0986090932F
:10079000650180936401205A2093660110926801DC
:1007A00080917801882309F484C0809163018F5F70
:1007B000809363018C3008F44BC080916401909168
:1007C0006501382F3F73232F26952695287048E022
:1007D000420F421769F0E22FF0E0EB5EFE4F5081CE
:1007E000351739F02F5FF5CF8C5E80936601BBCF54
:1007F00020E040E1249F9001112436E096958795F2
:100800003A95E1F7482F9595879595958795887046
:1008100098E0980F981749F0E82FF0E0EB5EFE4F54
:100820005081451719F08F5FF5CF80E0822B9091B2
:10083000CA01911121C0809362019CEF980F9D34F1
:10084000D8F010927801809161018F5F80936101EF
:10085000FF91EF91DF91CF91BF91AF919F918F91D8
:100860007F916F915F914F913F912F911F910F90C9
:100870000FBE0F901F901895E091CA0191E09E0F56
:100880009093CA01F0E0E658FE4F80839091CA0130
:1008900080916201981750F0109278018091600168
:1008A0008F5F8093600181E08093CB0110926301A0
:1008B000CFCF809164019091650188339B4041F6D0
:1008C00081E080937801109263011092CA01109226
:1008D000CB01BECFCF93DF93CDB7DEB7C456D109DE
:1008E0000FB6F894DEBF0FBECDBF789484B582609A
:1008F00084BD84B5816084BD85B5826085BD85B5C4
:10090000816085BD80916E00816080936E00109241
:1009100081008091810082608093810080918100BC
:10092000816080938100809180008160809380004D
:100930008091B10084608093B1008091B0008160AB
:100940008093B00080917A00846080937A008091D7
:100950007A00826080937A0080917A00816080932F
:100960007A0080917A00806880937A001092C100AA
:10097000E091DE01F091DF0182E08083E091DA0115
:10098000F091DB011082E091DC01F091DD018FEC50
:1009900080831092E601E091E201F091E30186E0AC
:1009A0008083E091E001F091E101808180618083AA
:1009B000E091E001F091E101808188608083E09125
:1009C000E001F091E101808180688083E091E001A5
:1009D000F091E10180818F7D808342E150E06AE304
:1009E00071E08EEC91E00E948C000E94210281E077
:1009F000809377018EE0E7E0F1E0DE01119601904F
:100A00000D928A95E1F77E0123E0E20EF11C11E0E0
:100A1000812C94E2992E94EFA92EB12C20E8422E3D
:100A20002EE3522E612C712CF701219131917F011F
:100A300050E040E0C501B4010E94FA06CA01B901C4
:100A4000A30192010E94FA062230310541055105A9
:100A500008F017C11F5F173039F78BE08093000152
:100A600080917901811105C081E080937901109214
:100A7000780180E0E82E80E0F82E6F961FAE1EAE63
:100A80006F97A1961FAE1EAEA197A3961FAE1EAE86
:100A9000A39750E040E069E371E0CE01835A9F4F95
:100AA0000E946B0269961FAE1EAE69976B961FAED1
:100AB0001EAE6B976D961FAE1EAE6D9742E150E075
:100AC0006DE471E0CE01895A9F4F0E946B028091C4
:100AD000CB01882309F4AFC00091CA01035000354F
:100AE00008F000E510E0A8016BE771E0CE01019687
:100AF0000E9404091092CB012091CA01EAE7F1E0BB
:100B00008FEF9FEF215098F031918327082E829527
:100B1000807F8025092E982F82958F7008268695D4
:100B200098278927880F880F880F8025EBCF883B6F
:100B3000904F09F080C01092CD011092CC01C0906E
:100B4000CC01D090CD01C016D1060CF074C0E1E00C
:100B5000F0E0EC0FFD1FEC0DFD1DB08063961FAEA5
:100B60001EAE639765961FAE1EAE659767961FAE65
:100B70001EAE67976F966EAD7FAD6F97611571056D
:100B800049F0A3964EAD5FADA397CE018F5A9F4F0C
:100B90000E946B02A496BFAEA497A5961FAEA59720
:100BA0006796AEACBFAC67972FEFA21AB20AB50139
:100BB000CE018F5A9F4F0E944302811122C0CE0165
:100BC0008F5A9F4F0E94290263966EAD7FAD639747
:100BD0006115710551F167964EAD5FAD6797CE0116
:100BE000835A9F4F0E946B02CE018F5A9F4F0E94E3
:100BF0003B028FEFC81AD80AD092CD01C092CC0127
:100C00009ECF63962EAD3FAD639767968EAD9FAD39
:100C10006797BE016D597F4F820F931F0E9416097F
:100C20006796BFAEAEAE6797CFCFCE01835A9F4FC8
:100C30000E942902D9CFA3960EAD1FADA3976D9642
:100C40008EAD9FAD6D970817190709F059C06F96C3
:100C5000CEACDFAC6F9769966EAD7FAD6997C1146E
:100C6000D104C1F16115710541F40115110509F4B3
:100C70003FC0F601808190E039C0C6010E940D0995
:100C800035C0163009F4E9CE1092800088E08093D8
:100C9000810080918100182B10938100309389008E
:100CA0002093880080916F00826080936F0061E0E4
:100CB0008CE00E94F00160E0809100010E94F00150
:100CC00061E08AE00E94F001609177018AE00E9471
:100CD000C201C3CE6115710559F00115110541F02E
:100CE000FB01808190E0919581959109892B41F4D8
:100CF000A801B6018EEC91E00E948C000E942102B6
:100D0000CE01895A9F4F0E943B02CE01835A9F4FCA
:100D10000E943B02E114F10409F4AFCE0E94F600F8
:100D2000882309F4AACE0E940000A3CEEEECF1E0E5
:100D30001382128288EE93E0A0E0B0E08483958372
:100D4000A683B78389E291E09183808385EC90E06C
:100D50009587848784EC90E09787868780EC90E085
:100D6000918B808B81EC90E0938B828B82EC90E076
:100D7000958B848B86EC90E0978B868B118E128EF0
:100D8000138E148E08952F923F924F925F926F921E
:100D90007F928F929F92AF92BF92CF92DF92EF920B
:100DA000FF920F931F93CF93DF93CDB7DEB7CA1B8C
:100DB000DB0B0FB6F894DEBF0FBECDBF09942A88B7
:100DC000398848885F846E847D848C849B84AA845F
:100DD000B984C884DF80EE80FD800C811B81AA81EC
:100DE000B981CE0FD11D0FB6F894DEBF0FBECDBFB7
:100DF000ED010895A1E21A2EAA1BBB1BFD010DC037
:100E0000AA1FBB1FEE1FFF1FA217B307E407F507BA
:100E100020F0A21BB30BE40BF50B661F771F881F96
:100E2000991F1A9469F760957095809590959B012C
:100E3000AC01BD01CF010895EE0FFF1F0590F491A5
:100E4000E02D09940F931F93CF93DF938230910588
:100E500010F482E090E0E0916D02F0916E0230E0DB
:100E600020E0B0E0A0E0309799F42115310509F4B5
:100E70004AC0281B390B24303105D8F58A819B8163
:100E80006115710589F1FB0193838283FE0111C015
:100E9000408151810281138148175907E0F04817BA
:100EA000590799F4109761F012960C9312971396C4
:100EB0001C933296CF01DF91CF911F910F9108952E
:100EC00000936D0210936E02F4CF2115310551F09D
:100ED0004217530738F0A901DB019A01BD01DF0178
:100EE000F801C1CFEF01F9CF90936E0280936D02AC
:100EF000CDCFFE01E20FF31F819391932250310970
:100F000039832883D7CF20916B0230916C02232B39
:100F100041F4209103013091040130936C0220933D
:100F20006B0220910101309102012115310541F43C
:100F30002DB73EB74091050150910601241B350B9A
:100F4000E0916B02F0916C02E217F307A0F42E1B04
:100F50003F0B2817390778F0AC014E5F5F4F24171D
:100F6000350748F04E0F5F1F50936C0240936B02A1
:100F7000819391939FCFF0E0E0E09CCFCF93DF93FC
:100F80000097E9F0FC01329713821282A0916D0262
:100F9000B0916E02ED0130E020E01097A1F42081C5
:100FA0003181820F931F20916B0230916C022817C0
:100FB000390709F061C0F0936C02E0936B02DF9196
:100FC000CF910895EA01CE17DF07E8F54A815B81EA
:100FD0009E0141155105B1F7E901FB83EA8349916F
:100FE0005991C40FD51FEC17FD0761F480819181E1
:100FF0000296840F951FE9019983888382819381EA
:101000009B838A83F0E0E0E012968D919C91139788
:101010000097B9F52D913C911197CD010296820F61
:10102000931F20916B0230916C022817390739F613
:10103000309751F510926E0210926D02B0936C02CF
:10104000A0936B02BCCFD383C28340815181840FB4
:10105000951FC817D90761F44E5F5F4F888199814A
:10106000480F591F518340838A819B8193838283D8
:101070002115310509F0B0CFF0936E02E0936D02B7
:101080009ECFFD01DC01C0CF13821282D7CFB0E02A
:10109000A0E0EDE4F8E00C94C5068C01009751F453
:1010A000CB010E9422078C01C801CDB7DEB7E0E179
:1010B0000C94E106FC01E60FF71F9C012250310958
:1010C000E217F30708F49DC0D901CD91DC91119787
:1010D000C617D70798F0C530D10530F3CE01049775
:1010E0008617970708F3C61BD70B2297C193D19396
:1010F0006D937C93CF010E94BE07D6CF5B01AC1AE3
:10110000BD0A4C018C0E9D1EA0916D02B0916E0225
:10111000512C412CF12CE12C109731F580916B0270
:1011200090916C028815990509F05CC04616570627
:1011300008F058C08091010190910201009741F49C
:101140008DB79EB74091050150910601841B950B08
:10115000E817F90708F055C0F0936C02E0936B02B2
:10116000F90171836083A0CF8D919C9111971296A4
:101170006C90129713967C901397A815B90559F5A2
:101180006C0142E0C40ED11CCA14DB0420F1AC0196
:101190004A195B09DA011296159780F06282738210
:1011A00051834083D9016D937C93E114F10471F074
:1011B000D7011396FC93EE93129776CF22968C0F5D
:1011C0009D1FF90191838083F301EFCFF0936E02AD
:1011D000E0936D0269CF4816590608F42C017D0191
:1011E000D3019ACFCB010E9422077C01009749F0DE
:1011F000AE01B8010E940409C8010E94BE07870120
:1012000053CF10E000E050CFFB01DC0102C00190A1
:101210000D9241505040D8F70895FB01DC018D91AB
:10122000019080190110D9F3990B0895FB01DC019D
:0E12300001900D920020E1F70895F894FFCF91
:10123E000B00006F0280000000010008004000005B
:10124E00010004050D0D0E131516191A1C23252663
:10125E00292A2C3234000000002C018C00B90079B0
:10126E0001EA00C800DC000D0A002A2A2A2A52656B
:10127E0063657669657220422A2A2A2A0050322036
:10128E00707573682069642070726573736564008D
:00000001FF
